{
  "_format": "hh3-artifact-1",
  "contractName": "Compliance",
  "sourceName": "contracts/Compliance.sol",
  "abi": [
    {
      "inputs": [
        {
          "internalType": "address",
          "name": "admin",
          "type": "address"
        }
      ],
      "stateMutability": "nonpayable",
      "type": "constructor"
    },
    {
      "inputs": [],
      "name": "AccessControlBadConfirmation",
      "type": "error"
    },
    {
      "inputs": [
        {
          "internalType": "address",
          "name": "account",
          "type": "address"
        },
        {
          "internalType": "bytes32",
          "name": "neededRole",
          "type": "bytes32"
        }
      ],
      "name": "AccessControlUnauthorizedAccount",
      "type": "error"
    },
    {
      "inputs": [],
      "name": "ECDSAInvalidSignature",
      "type": "error"
    },
    {
      "inputs": [
        {
          "internalType": "uint256",
          "name": "length",
          "type": "uint256"
        }
      ],
      "name": "ECDSAInvalidSignatureLength",
      "type": "error"
    },
    {
      "inputs": [
        {
          "internalType": "bytes32",
          "name": "s",
          "type": "bytes32"
        }
      ],
      "name": "ECDSAInvalidSignatureS",
      "type": "error"
    },
    {
      "anonymous": false,
      "inputs": [
        {
          "indexed": true,
          "internalType": "bytes32",
          "name": "actionHash",
          "type": "bytes32"
        },
        {
          "indexed": true,
          "internalType": "address",
          "name": "agent",
          "type": "address"
        },
        {
          "indexed": false,
          "internalType": "string",
          "name": "actionType",
          "type": "string"
        },
        {
          "indexed": false,
          "internalType": "uint256",
          "name": "ts",
          "type": "uint256"
        },
        {
          "indexed": false,
          "internalType": "bytes",
          "name": "meta",
          "type": "bytes"
        }
      ],
      "name": "AgentAction",
      "type": "event"
    },
    {
      "anonymous": false,
      "inputs": [
        {
          "indexed": true,
          "internalType": "bytes32",
          "name": "certHash",
          "type": "bytes32"
        },
        {
          "indexed": false,
          "internalType": "address",
          "name": "issuer",
          "type": "address"
        },
        {
          "indexed": false,
          "internalType": "address",
          "name": "owner",
          "type": "address"
        },
        {
          "indexed": false,
          "internalType": "uint256",
          "name": "expiry",
          "type": "uint256"
        }
      ],
      "name": "CertificateIssued",
      "type": "event"
    },
    {
      "anonymous": false,
      "inputs": [
        {
          "indexed": true,
          "internalType": "bytes32",
          "name": "certHash",
          "type": "bytes32"
        },
        {
          "indexed": false,
          "internalType": "address",
          "name": "revokedBy",
          "type": "address"
        },
        {
          "indexed": false,
          "internalType": "uint256",
          "name": "ts",
          "type": "uint256"
        }
      ],
      "name": "CertificateRevoked",
      "type": "event"
    },
    {
      "anonymous": false,
      "inputs": [
        {
          "indexed": true,
          "internalType": "bytes32",
          "name": "contentHash",
          "type": "bytes32"
        },
        {
          "indexed": true,
          "internalType": "bytes32",
          "name": "summaryHash",
          "type": "bytes32"
        },
        {
          "indexed": true,
          "internalType": "address",
          "name": "inspector",
          "type": "address"
        },
        {
          "indexed": false,
          "internalType": "uint256",
          "name": "ts",
          "type": "uint256"
        },
        {
          "indexed": false,
          "internalType": "bytes",
          "name": "meta",
          "type": "bytes"
        }
      ],
      "name": "InspectionRecorded",
      "type": "event"
    },
    {
      "anonymous": false,
      "inputs": [
        {
          "indexed": true,
          "internalType": "bytes32",
          "name": "policyKey",
          "type": "bytes32"
        },
        {
          "indexed": false,
          "internalType": "address",
          "name": "changedBy",
          "type": "address"
        },
        {
          "indexed": false,
          "internalType": "uint256",
          "name": "ts",
          "type": "uint256"
        }
      ],
      "name": "PolicyChanged",
      "type": "event"
    },
    {
      "anonymous": false,
      "inputs": [
        {
          "indexed": true,
          "internalType": "bytes32",
          "name": "role",
          "type": "bytes32"
        },
        {
          "indexed": true,
          "internalType": "bytes32",
          "name": "previousAdminRole",
          "type": "bytes32"
        },
        {
          "indexed": true,
          "internalType": "bytes32",
          "name": "newAdminRole",
          "type": "bytes32"
        }
      ],
      "name": "RoleAdminChanged",
      "type": "event"
    },
    {
      "anonymous": false,
      "inputs": [
        {
          "indexed": true,
          "internalType": "bytes32",
          "name": "role",
          "type": "bytes32"
        },
        {
          "indexed": true,
          "internalType": "address",
          "name": "account",
          "type": "address"
        },
        {
          "indexed": true,
          "internalType": "address",
          "name": "sender",
          "type": "address"
        }
      ],
      "name": "RoleGranted",
      "type": "event"
    },
    {
      "anonymous": false,
      "inputs": [
        {
          "indexed": true,
          "internalType": "bytes32",
          "name": "role",
          "type": "bytes32"
        },
        {
          "indexed": true,
          "internalType": "address",
          "name": "account",
          "type": "address"
        },
        {
          "indexed": true,
          "internalType": "address",
          "name": "sender",
          "type": "address"
        }
      ],
      "name": "RoleRevoked",
      "type": "event"
    },
    {
      "inputs": [],
      "name": "ADMIN_ROLE",
      "outputs": [
        {
          "internalType": "bytes32",
          "name": "",
          "type": "bytes32"
        }
      ],
      "stateMutability": "view",
      "type": "function"
    },
    {
      "inputs": [],
      "name": "AGENT_ROLE",
      "outputs": [
        {
          "internalType": "bytes32",
          "name": "",
          "type": "bytes32"
        }
      ],
      "stateMutability": "view",
      "type": "function"
    },
    {
      "inputs": [],
      "name": "DEFAULT_ADMIN_ROLE",
      "outputs": [
        {
          "internalType": "bytes32",
          "name": "",
          "type": "bytes32"
        }
      ],
      "stateMutability": "view",
      "type": "function"
    },
    {
      "inputs": [],
      "name": "INSPECTOR_ROLE",
      "outputs": [
        {
          "internalType": "bytes32",
          "name": "",
          "type": "bytes32"
        }
      ],
      "stateMutability": "view",
      "type": "function"
    },
    {
      "inputs": [],
      "name": "SUBMITTER_ROLE",
      "outputs": [
        {
          "internalType": "bytes32",
          "name": "",
          "type": "bytes32"
        }
      ],
      "stateMutability": "view",
      "type": "function"
    },
    {
      "inputs": [
        {
          "internalType": "bytes32",
          "name": "",
          "type": "bytes32"
        }
      ],
      "name": "certificates",
      "outputs": [
        {
          "internalType": "bytes32",
          "name": "certHash",
          "type": "bytes32"
        },
        {
          "internalType": "address",
          "name": "issuer",
          "type": "address"
        },
        {
          "internalType": "address",
          "name": "owner",
          "type": "address"
        },
        {
          "internalType": "uint256",
          "name": "issuedAt",
          "type": "uint256"
        },
        {
          "internalType": "uint256",
          "name": "expiry",
          "type": "uint256"
        },
        {
          "internalType": "bool",
          "name": "revoked",
          "type": "bool"
        }
      ],
      "stateMutability": "view",
      "type": "function"
    },
    {
      "inputs": [
        {
          "internalType": "bytes32",
          "name": "role",
          "type": "bytes32"
        }
      ],
      "name": "getRoleAdmin",
      "outputs": [
        {
          "internalType": "bytes32",
          "name": "",
          "type": "bytes32"
        }
      ],
      "stateMutability": "view",
      "type": "function"
    },
    {
      "inputs": [
        {
          "internalType": "bytes32",
          "name": "role",
          "type": "bytes32"
        },
        {
          "internalType": "address",
          "name": "account",
          "type": "address"
        }
      ],
      "name": "grantRole",
      "outputs": [],
      "stateMutability": "nonpayable",
      "type": "function"
    },
    {
      "inputs": [
        {
          "internalType": "bytes32",
          "name": "role",
          "type": "bytes32"
        },
        {
          "internalType": "address",
          "name": "account",
          "type": "address"
        }
      ],
      "name": "hasRole",
      "outputs": [
        {
          "internalType": "bool",
          "name": "",
          "type": "bool"
        }
      ],
      "stateMutability": "view",
      "type": "function"
    },
    {
      "inputs": [
        {
          "internalType": "bytes32",
          "name": "certHash",
          "type": "bytes32"
        }
      ],
      "name": "isCertificateValid",
      "outputs": [
        {
          "internalType": "bool",
          "name": "",
          "type": "bool"
        }
      ],
      "stateMutability": "view",
      "type": "function"
    },
    {
      "inputs": [
        {
          "internalType": "bytes32",
          "name": "certHash",
          "type": "bytes32"
        },
        {
          "internalType": "address",
          "name": "owner",
          "type": "address"
        },
        {
          "internalType": "uint256",
          "name": "expiry",
          "type": "uint256"
        }
      ],
      "name": "issueCertificate",
      "outputs": [],
      "stateMutability": "nonpayable",
      "type": "function"
    },
    {
      "inputs": [
        {
          "internalType": "bytes32",
          "name": "certHash",
          "type": "bytes32"
        },
        {
          "internalType": "address",
          "name": "owner",
          "type": "address"
        },
        {
          "internalType": "uint256",
          "name": "expiry",
          "type": "uint256"
        },
        {
          "internalType": "address",
          "name": "issuer",
          "type": "address"
        },
        {
          "internalType": "bytes32",
          "name": "nonce",
          "type": "bytes32"
        },
        {
          "internalType": "bytes",
          "name": "signature",
          "type": "bytes"
        }
      ],
      "name": "issueCertificateWithSignature",
      "outputs": [],
      "stateMutability": "nonpayable",
      "type": "function"
    },
    {
      "inputs": [
        {
          "internalType": "bytes32",
          "name": "actionHash",
          "type": "bytes32"
        },
        {
          "internalType": "string",
          "name": "actionType",
          "type": "string"
        },
        {
          "internalType": "bytes",
          "name": "meta",
          "type": "bytes"
        }
      ],
      "name": "recordAgentAction",
      "outputs": [],
      "stateMutability": "nonpayable",
      "type": "function"
    },
    {
      "inputs": [
        {
          "internalType": "bytes32",
          "name": "contentHash",
          "type": "bytes32"
        },
        {
          "internalType": "bytes32",
          "name": "summaryHash",
          "type": "bytes32"
        },
        {
          "internalType": "address",
          "name": "inspector",
          "type": "address"
        },
        {
          "internalType": "bytes",
          "name": "meta",
          "type": "bytes"
        }
      ],
      "name": "recordInspection",
      "outputs": [],
      "stateMutability": "nonpayable",
      "type": "function"
    },
    {
      "inputs": [
        {
          "internalType": "bytes32",
          "name": "contentHash",
          "type": "bytes32"
        },
        {
          "internalType": "bytes32",
          "name": "summaryHash",
          "type": "bytes32"
        },
        {
          "internalType": "address",
          "name": "inspector",
          "type": "address"
        },
        {
          "internalType": "uint256",
          "name": "inspectorTimestamp",
          "type": "uint256"
        },
        {
          "internalType": "bytes32",
          "name": "nonce",
          "type": "bytes32"
        },
        {
          "internalType": "bytes",
          "name": "signature",
          "type": "bytes"
        },
        {
          "internalType": "bytes",
          "name": "meta",
          "type": "bytes"
        }
      ],
      "name": "recordInspectionWithSignature",
      "outputs": [],
      "stateMutability": "nonpayable",
      "type": "function"
    },
    {
      "inputs": [
        {
          "internalType": "bytes32",
          "name": "role",
          "type": "bytes32"
        },
        {
          "internalType": "address",
          "name": "callerConfirmation",
          "type": "address"
        }
      ],
      "name": "renounceRole",
      "outputs": [],
      "stateMutability": "nonpayable",
      "type": "function"
    },
    {
      "inputs": [
        {
          "internalType": "bytes32",
          "name": "certHash",
          "type": "bytes32"
        }
      ],
      "name": "revokeCertificate",
      "outputs": [],
      "stateMutability": "nonpayable",
      "type": "function"
    },
    {
      "inputs": [
        {
          "internalType": "bytes32",
          "name": "role",
          "type": "bytes32"
        },
        {
          "internalType": "address",
          "name": "account",
          "type": "address"
        }
      ],
      "name": "revokeRole",
      "outputs": [],
      "stateMutability": "nonpayable",
      "type": "function"
    },
    {
      "inputs": [
        {
          "internalType": "bytes32",
          "name": "",
          "type": "bytes32"
        }
      ],
      "name": "seenInspections",
      "outputs": [
        {
          "internalType": "bool",
          "name": "",
          "type": "bool"
        }
      ],
      "stateMutability": "view",
      "type": "function"
    },
    {
      "inputs": [
        {
          "internalType": "bytes32",
          "name": "policyKey",
          "type": "bytes32"
        }
      ],
      "name": "setPolicy",
      "outputs": [],
      "stateMutability": "nonpayable",
      "type": "function"
    },
    {
      "inputs": [
        {
          "internalType": "bytes4",
          "name": "interfaceId",
          "type": "bytes4"
        }
      ],
      "name": "supportsInterface",
      "outputs": [
        {
          "internalType": "bool",
          "name": "",
          "type": "bool"
        }
      ],
      "stateMutability": "view",
      "type": "function"
    },
    {
      "inputs": [
        {
          "internalType": "bytes32",
          "name": "",
          "type": "bytes32"
        }
      ],
      "name": "usedSignatures",
      "outputs": [
        {
          "internalType": "bool",
          "name": "",
          "type": "bool"
        }
      ],
      "stateMutability": "view",
      "type": "function"
    }
  ],
  "bytecode": "0x608060405234801561000f575f5ffd5b50604051612db9380380612db98339818101604052810190610031919061021a565b6100435f5f1b8261005d60201b60201c565b506100565f5f1b3361005d60201b60201c565b5050610245565b5f61006e838361015260201b60201c565b6101485760015f5f8581526020019081526020015f205f015f8473ffffffffffffffffffffffffffffffffffffffff1673ffffffffffffffffffffffffffffffffffffffff1681526020019081526020015f205f6101000a81548160ff0219169083151502179055506100e56101b560201b60201c565b73ffffffffffffffffffffffffffffffffffffffff168273ffffffffffffffffffffffffffffffffffffffff16847f2f8788117e7eff1d82e926ec794901d17c78024a50270940304540a733656f0d60405160405180910390a46001905061014c565b5f90505b92915050565b5f5f5f8481526020019081526020015f205f015f8373ffffffffffffffffffffffffffffffffffffffff1673ffffffffffffffffffffffffffffffffffffffff1681526020019081526020015f205f9054906101000a900460ff16905092915050565b5f33905090565b5f5ffd5b5f73ffffffffffffffffffffffffffffffffffffffff82169050919050565b5f6101e9826101c0565b9050919050565b6101f9816101df565b8114610203575f5ffd5b50565b5f81519050610214816101f0565b92915050565b5f6020828403121561022f5761022e6101bc565b5b5f61023c84828501610206565b91505092915050565b612b67806102525f395ff3fe608060405234801561000f575f5ffd5b5060043610610140575f3560e01c806391712a0b116100b6578063c6cbc52a1161007a578063c6cbc52a14610389578063cecfd238146103a5578063d547741f146103c1578063dc27151e146103dd578063e3a3c522146103f9578063f978fd611461041757610140565b806391712a0b146102e557806391d1485414610303578063a217fddf14610333578063a4d8585314610351578063baaeaff11461036d57610140565b8063248a9ca311610108578063248a9ca3146101fa5780632f2ff15d1461022a57806336568abe146102465780633efa86cd14610262578063742f06881461029257806375b238fc146102c757610140565b806301ffc9a714610144578063057140991461017457806306aaecaf146101a45780630b1849a4146101c057806322459e18146101dc575b5f5ffd5b61015e60048036038101906101599190611c17565b610447565b60405161016b9190611c5c565b60405180910390f35b61018e60048036038101906101899190611ca8565b6104c0565b60405161019b9190611c5c565b60405180910390f35b6101be60048036038101906101b99190611d8e565b610613565b005b6101da60048036038101906101d59190611e45565b61076f565b005b6101e4610bb2565b6040516101f19190611efe565b60405180910390f35b610214600480360381019061020f9190611ca8565b610bd6565b6040516102219190611efe565b60405180910390f35b610244600480360381019061023f9190611f17565b610bf2565b005b610260600480360381019061025b9190611f17565b610c14565b005b61027c60048036038101906102779190611ca8565b610c8f565b6040516102899190611c5c565b60405180910390f35b6102ac60048036038101906102a79190611ca8565b610cac565b6040516102be96959493929190611f73565b60405180910390f35b6102cf610d2e565b6040516102dc9190611efe565b60405180910390f35b6102ed610d34565b6040516102fa9190611efe565b60405180910390f35b61031d60048036038101906103189190611f17565b610d58565b60405161032a9190611c5c565b60405180910390f35b61033b610dbb565b6040516103489190611efe565b60405180910390f35b61036b60048036038101906103669190611fd2565b610dc1565b005b610387600480360381019061038291906120ae565b6110a7565b005b6103a3600480360381019061039e9190611ca8565b6112e4565b005b6103bf60048036038101906103ba9190612153565b611415565b005b6103db60048036038101906103d69190611f17565b6114e2565b005b6103f760048036038101906103f29190611ca8565b611504565b005b61040161154e565b60405161040e9190611efe565b60405180910390f35b610431600480360381019061042c9190611ca8565b611572565b60405161043e9190611c5c565b60405180910390f35b5f7f7965db0b000000000000000000000000000000000000000000000000000000007bffffffffffffffffffffffffffffffffffffffffffffffffffffffff1916827bffffffffffffffffffffffffffffffffffffffffffffffffffffffff191614806104b957506104b88261158f565b5b9050919050565b5f5f60015f8481526020019081526020015f206040518060c00160405290815f8201548152602001600182015f9054906101000a900473ffffffffffffffffffffffffffffffffffffffff1673ffffffffffffffffffffffffffffffffffffffff1673ffffffffffffffffffffffffffffffffffffffff168152602001600282015f9054906101000a900473ffffffffffffffffffffffffffffffffffffffff1673ffffffffffffffffffffffffffffffffffffffff1673ffffffffffffffffffffffffffffffffffffffff1681526020016003820154815260200160048201548152602001600582015f9054906101000a900460ff16151515158152505090505f5f1b815f015114806105d557508060a001515b156105e3575f91505061060e565b5f8160800151141580156105fa5750806080015142115b15610608575f91505061060e565b60019150505b919050565b7fe1a65d1a914580ff6931bc952f0fb26573e9282358a4458bceb9ccc6d923d04161063d816115f8565b5f5f1b8603610681576040517f08c379a00000000000000000000000000000000000000000000000000000000081526004016106789061223e565b60405180910390fd5b6106ab7f273dcf2136c7d8ef632bb8ef13dbca69a8f36fa620c7468671b3153d46a211c085610d58565b6106ea576040517f08c379a00000000000000000000000000000000000000000000000000000000081526004016106e1906122a6565b60405180910390fd5b600160025f8881526020019081526020015f205f6101000a81548160ff0219169083151502179055508373ffffffffffffffffffffffffffffffffffffffff1685877f34ed33ec005f4c4872bdae020ebcf2b1176b5bef9e3e35c6fe95a851405dac0d42878760405161075f9392919061231e565b60405180910390a4505050505050565b7fe1a65d1a914580ff6931bc952f0fb26573e9282358a4458bceb9ccc6d923d041610799816115f8565b5f5f1b88036107dd576040517f08c379a00000000000000000000000000000000000000000000000000000000081526004016107d490612398565b60405180910390fd5b5f5f1b60015f8a81526020019081526020015f205f015414610834576040517f08c379a000000000000000000000000000000000000000000000000000000000815260040161082b90612400565b60405180910390fd5b5f610842898989898961160c565b90505f6108928286868080601f0160208091040260200160405190810160405280939291908181526020018383808284375f81840152601f19601f8201169050808301925050505050505061164b565b90508673ffffffffffffffffffffffffffffffffffffffff168173ffffffffffffffffffffffffffffffffffffffff1614610902576040517f08c379a00000000000000000000000000000000000000000000000000000000081526004016108f99061248e565b60405180910390fd5b61092c7fe1a65d1a914580ff6931bc952f0fb26573e9282358a4458bceb9ccc6d923d04188610d58565b8061093f575061093e5f5f1b88610d58565b5b61097e576040517f08c379a0000000000000000000000000000000000000000000000000000000008152600401610975906124f6565b60405180910390fd5b5f82868660405160200161099493929190612562565b60405160208183030381529060405280519060200120905060035f8281526020019081526020015f205f9054906101000a900460ff1615610a0a576040517f08c379a0000000000000000000000000000000000000000000000000000000008152600401610a01906125d5565b60405180910390fd5b600160035f8381526020019081526020015f205f6101000a81548160ff0219169083151502179055506040518060c001604052808c81526020018973ffffffffffffffffffffffffffffffffffffffff1681526020018b73ffffffffffffffffffffffffffffffffffffffff1681526020014281526020018a81526020015f151581525060015f8d81526020019081526020015f205f820151815f01556020820151816001015f6101000a81548173ffffffffffffffffffffffffffffffffffffffff021916908373ffffffffffffffffffffffffffffffffffffffff1602179055506040820151816002015f6101000a81548173ffffffffffffffffffffffffffffffffffffffff021916908373ffffffffffffffffffffffffffffffffffffffff160217905550606082015181600301556080820151816004015560a0820151816005015f6101000a81548160ff0219169083151502179055509050508a7f8a9f2fdd359409354808bbba510d19f4d4facf7f77d5802fc3326db79a730299898c8c604051610b9d939291906125f3565b60405180910390a25050505050505050505050565b7fcab5a0bfe0b79d2c4b1c2e02599fa044d115b7511f9659307cb427695096770981565b5f5f5f8381526020019081526020015f20600101549050919050565b610bfb82610bd6565b610c04816115f8565b610c0e8383611689565b50505050565b610c1c611772565b73ffffffffffffffffffffffffffffffffffffffff168173ffffffffffffffffffffffffffffffffffffffff1614610c80576040517f6697b23200000000000000000000000000000000000000000000000000000000815260040160405180910390fd5b610c8a8282611779565b505050565b6002602052805f5260405f205f915054906101000a900460ff1681565b6001602052805f5260405f205f91509050805f015490806001015f9054906101000a900473ffffffffffffffffffffffffffffffffffffffff1690806002015f9054906101000a900473ffffffffffffffffffffffffffffffffffffffff1690806003015490806004015490806005015f9054906101000a900460ff16905086565b5f5f1b81565b7fe1a65d1a914580ff6931bc952f0fb26573e9282358a4458bceb9ccc6d923d04181565b5f5f5f8481526020019081526020015f205f015f8373ffffffffffffffffffffffffffffffffffffffff1673ffffffffffffffffffffffffffffffffffffffff1681526020019081526020015f205f9054906101000a900460ff16905092915050565b5f5f1b81565b7fe1a65d1a914580ff6931bc952f0fb26573e9282358a4458bceb9ccc6d923d041610deb816115f8565b5f5f1b8a03610e2f576040517f08c379a0000000000000000000000000000000000000000000000000000000008152600401610e269061223e565b60405180910390fd5b5f610e3d8b8b8b8b8b611862565b90505f610e8d8288888080601f0160208091040260200160405190810160405280939291908181526020018383808284375f81840152601f19601f8201169050808301925050505050505061164b565b90508973ffffffffffffffffffffffffffffffffffffffff168173ffffffffffffffffffffffffffffffffffffffff1614610efd576040517f08c379a0000000000000000000000000000000000000000000000000000000008152600401610ef490612698565b60405180910390fd5b610f277f273dcf2136c7d8ef632bb8ef13dbca69a8f36fa620c7468671b3153d46a211c08b610d58565b610f66576040517f08c379a0000000000000000000000000000000000000000000000000000000008152600401610f5d906122a6565b60405180910390fd5b5f828888604051602001610f7c93929190612562565b60405160208183030381529060405280519060200120905060035f8281526020019081526020015f205f9054906101000a900460ff1615610ff2576040517f08c379a0000000000000000000000000000000000000000000000000000000008152600401610fe9906125d5565b60405180910390fd5b600160035f8381526020019081526020015f205f6101000a81548160ff021916908315150217905550600160025f8f81526020019081526020015f205f6101000a81548160ff0219169083151502179055508a73ffffffffffffffffffffffffffffffffffffffff168c8e7f34ed33ec005f4c4872bdae020ebcf2b1176b5bef9e3e35c6fe95a851405dac0d8d8a8a6040516110909392919061231e565b60405180910390a450505050505050505050505050565b7fe1a65d1a914580ff6931bc952f0fb26573e9282358a4458bceb9ccc6d923d0416110d1816115f8565b5f5f1b8403611115576040517f08c379a000000000000000000000000000000000000000000000000000000000815260040161110c90612398565b60405180910390fd5b5f5f1b60015f8681526020019081526020015f205f01541461116c576040517f08c379a000000000000000000000000000000000000000000000000000000000815260040161116390612400565b60405180910390fd5b6040518060c001604052808581526020013373ffffffffffffffffffffffffffffffffffffffff1681526020018473ffffffffffffffffffffffffffffffffffffffff1681526020014281526020018381526020015f151581525060015f8681526020019081526020015f205f820151815f01556020820151816001015f6101000a81548173ffffffffffffffffffffffffffffffffffffffff021916908373ffffffffffffffffffffffffffffffffffffffff1602179055506040820151816002015f6101000a81548173ffffffffffffffffffffffffffffffffffffffff021916908373ffffffffffffffffffffffffffffffffffffffff160217905550606082015181600301556080820151816004015560a0820151816005015f6101000a81548160ff021916908315150217905550905050837f8a9f2fdd359409354808bbba510d19f4d4facf7f77d5802fc3326db79a7302993385856040516112d6939291906125f3565b60405180910390a250505050565b7fe1a65d1a914580ff6931bc952f0fb26573e9282358a4458bceb9ccc6d923d04161130e816115f8565b5f60015f8481526020019081526020015f2090505f5f1b815f015403611369576040517f08c379a000000000000000000000000000000000000000000000000000000000815260040161136090612700565b60405180910390fd5b806005015f9054906101000a900460ff16156113ba576040517f08c379a00000000000000000000000000000000000000000000000000000000081526004016113b190612768565b60405180910390fd5b6001816005015f6101000a81548160ff021916908315150217905550827f85fe6dd2dfc4757558754564c7ff020182ec3c918257c2ff3a217a63791ec24f3342604051611408929190612786565b60405180910390a2505050565b7fcab5a0bfe0b79d2c4b1c2e02599fa044d115b7511f9659307cb427695096770961143f816115f8565b5f5f1b8603611483576040517f08c379a000000000000000000000000000000000000000000000000000000000815260040161147a906127f7565b60405180910390fd5b3373ffffffffffffffffffffffffffffffffffffffff16867fce2c98edad2214d9f84bcb7de58b08fc4512ef77b4202bb52cb2ed0f1cea5a1887874288886040516114d2959493929190612841565b60405180910390a3505050505050565b6114eb82610bd6565b6114f4816115f8565b6114fe8383611779565b50505050565b5f5f1b611510816115f8565b817fbdff7149e831ef865733b918c2afd6b2d0bde681291bbd0dc0474c4e765936443342604051611542929190612786565b60405180910390a25050565b7f273dcf2136c7d8ef632bb8ef13dbca69a8f36fa620c7468671b3153d46a211c081565b6003602052805f5260405f205f915054906101000a900460ff1681565b5f7f01ffc9a7000000000000000000000000000000000000000000000000000000007bffffffffffffffffffffffffffffffffffffffffffffffffffffffff1916827bffffffffffffffffffffffffffffffffffffffffffffffffffffffff1916149050919050565b61160981611604611772565b6118a1565b50565b5f3046878787878760405160200161162a97969594939291906128ed565b60405160208183030381529060405280519060200120905095945050505050565b5f5f8360405160200161165e91906129c1565b60405160208183030381529060405280519060200120905061168081846118f2565b91505092915050565b5f6116948383610d58565b6117685760015f5f8581526020019081526020015f205f015f8473ffffffffffffffffffffffffffffffffffffffff1673ffffffffffffffffffffffffffffffffffffffff1681526020019081526020015f205f6101000a81548160ff021916908315150217905550611705611772565b73ffffffffffffffffffffffffffffffffffffffff168273ffffffffffffffffffffffffffffffffffffffff16847f2f8788117e7eff1d82e926ec794901d17c78024a50270940304540a733656f0d60405160405180910390a46001905061176c565b5f90505b92915050565b5f33905090565b5f6117848383610d58565b15611858575f5f5f8581526020019081526020015f205f015f8473ffffffffffffffffffffffffffffffffffffffff1673ffffffffffffffffffffffffffffffffffffffff1681526020019081526020015f205f6101000a81548160ff0219169083151502179055506117f5611772565b73ffffffffffffffffffffffffffffffffffffffff168273ffffffffffffffffffffffffffffffffffffffff16847ff6391f5c32d9c69d2a47ea670b442974b53935d1edc7fd64eb21e047a839171b60405160405180910390a46001905061185c565b5f90505b92915050565b5f3046878787878760405160200161188097969594939291906129e6565b60405160208183030381529060405280519060200120905095945050505050565b6118ab8282610d58565b6118ee5780826040517fe2517d3f0000000000000000000000000000000000000000000000000000000081526004016118e5929190612a66565b60405180910390fd5b5050565b5f5f5f5f611900868661191c565b9250925092506119108282611971565b82935050505092915050565b5f5f5f604184510361195c575f5f5f602087015192506040870151915060608701515f1a905061194e88828585611ad3565b95509550955050505061196a565b5f600285515f1b9250925092505b9250925092565b5f600381111561198457611983612a8d565b5b82600381111561199757611996612a8d565b5b0315611acf57600160038111156119b1576119b0612a8d565b5b8260038111156119c4576119c3612a8d565b5b036119fb576040517ff645eedf00000000000000000000000000000000000000000000000000000000815260040160405180910390fd5b60026003811115611a0f57611a0e612a8d565b5b826003811115611a2257611a21612a8d565b5b03611a6657805f1c6040517ffce698f7000000000000000000000000000000000000000000000000000000008152600401611a5d9190612aba565b60405180910390fd5b600380811115611a7957611a78612a8d565b5b826003811115611a8c57611a8b612a8d565b5b03611ace57806040517fd78bce0c000000000000000000000000000000000000000000000000000000008152600401611ac59190611efe565b60405180910390fd5b5b5050565b5f5f5f7f7fffffffffffffffffffffffffffffff5d576e7357a4501ddfe92f46681b20a0845f1c1115611b0f575f600385925092509250611bb0565b5f6001888888886040515f8152602001604052604051611b329493929190612aee565b6020604051602081039080840390855afa158015611b52573d5f5f3e3d5ffd5b5050506020604051035190505f73ffffffffffffffffffffffffffffffffffffffff168173ffffffffffffffffffffffffffffffffffffffff1603611ba3575f60015f5f1b93509350935050611bb0565b805f5f5f1b935093509350505b9450945094915050565b5f5ffd5b5f5ffd5b5f7fffffffff0000000000000000000000000000000000000000000000000000000082169050919050565b611bf681611bc2565b8114611c00575f5ffd5b50565b5f81359050611c1181611bed565b92915050565b5f60208284031215611c2c57611c2b611bba565b5b5f611c3984828501611c03565b91505092915050565b5f8115159050919050565b611c5681611c42565b82525050565b5f602082019050611c6f5f830184611c4d565b92915050565b5f819050919050565b611c8781611c75565b8114611c91575f5ffd5b50565b5f81359050611ca281611c7e565b92915050565b5f60208284031215611cbd57611cbc611bba565b5b5f611cca84828501611c94565b91505092915050565b5f73ffffffffffffffffffffffffffffffffffffffff82169050919050565b5f611cfc82611cd3565b9050919050565b611d0c81611cf2565b8114611d16575f5ffd5b50565b5f81359050611d2781611d03565b92915050565b5f5ffd5b5f5ffd5b5f5ffd5b5f5f83601f840112611d4e57611d4d611d2d565b5b8235905067ffffffffffffffff811115611d6b57611d6a611d31565b5b602083019150836001820283011115611d8757611d86611d35565b5b9250929050565b5f5f5f5f5f60808688031215611da757611da6611bba565b5b5f611db488828901611c94565b9550506020611dc588828901611c94565b9450506040611dd688828901611d19565b935050606086013567ffffffffffffffff811115611df757611df6611bbe565b5b611e0388828901611d39565b92509250509295509295909350565b5f819050919050565b611e2481611e12565b8114611e2e575f5ffd5b50565b5f81359050611e3f81611e1b565b92915050565b5f5f5f5f5f5f5f60c0888a031215611e6057611e5f611bba565b5b5f611e6d8a828b01611c94565b9750506020611e7e8a828b01611d19565b9650506040611e8f8a828b01611e31565b9550506060611ea08a828b01611d19565b9450506080611eb18a828b01611c94565b93505060a088013567ffffffffffffffff811115611ed257611ed1611bbe565b5b611ede8a828b01611d39565b925092505092959891949750929550565b611ef881611c75565b82525050565b5f602082019050611f115f830184611eef565b92915050565b5f5f60408385031215611f2d57611f2c611bba565b5b5f611f3a85828601611c94565b9250506020611f4b85828601611d19565b9150509250929050565b611f5e81611cf2565b82525050565b611f6d81611e12565b82525050565b5f60c082019050611f865f830189611eef565b611f936020830188611f55565b611fa06040830187611f55565b611fad6060830186611f64565b611fba6080830185611f64565b611fc760a0830184611c4d565b979650505050505050565b5f5f5f5f5f5f5f5f5f60e08a8c031215611fef57611fee611bba565b5b5f611ffc8c828d01611c94565b995050602061200d8c828d01611c94565b985050604061201e8c828d01611d19565b975050606061202f8c828d01611e31565b96505060806120408c828d01611c94565b95505060a08a013567ffffffffffffffff81111561206157612060611bbe565b5b61206d8c828d01611d39565b945094505060c08a013567ffffffffffffffff8111156120905761208f611bbe565b5b61209c8c828d01611d39565b92509250509295985092959850929598565b5f5f5f606084860312156120c5576120c4611bba565b5b5f6120d286828701611c94565b93505060206120e386828701611d19565b92505060406120f486828701611e31565b9150509250925092565b5f5f83601f84011261211357612112611d2d565b5b8235905067ffffffffffffffff8111156121305761212f611d31565b5b60208301915083600182028301111561214c5761214b611d35565b5b9250929050565b5f5f5f5f5f6060868803121561216c5761216b611bba565b5b5f61217988828901611c94565b955050602086013567ffffffffffffffff81111561219a57612199611bbe565b5b6121a6888289016120fe565b9450945050604086013567ffffffffffffffff8111156121c9576121c8611bbe565b5b6121d588828901611d39565b92509250509295509295909350565b5f82825260208201905092915050565b7f696e76616c696420636f6e74656e7420686173680000000000000000000000005f82015250565b5f6122286014836121e4565b9150612233826121f4565b602082019050919050565b5f6020820190508181035f8301526122558161221c565b9050919050565b7f696e73706563746f72206e6f7420617574686f72697a656400000000000000005f82015250565b5f6122906018836121e4565b915061229b8261225c565b602082019050919050565b5f6020820190508181035f8301526122bd81612284565b9050919050565b5f82825260208201905092915050565b828183375f83830152505050565b5f601f19601f8301169050919050565b5f6122fd83856122c4565b935061230a8385846122d4565b612313836122e2565b840190509392505050565b5f6040820190506123315f830186611f64565b81810360208301526123448184866122f2565b9050949350505050565b7f696e76616c6964206365727420686173680000000000000000000000000000005f82015250565b5f6123826011836121e4565b915061238d8261234e565b602082019050919050565b5f6020820190508181035f8301526123af81612376565b9050919050565b7f616c7265616479206578697374730000000000000000000000000000000000005f82015250565b5f6123ea600e836121e4565b91506123f5826123b6565b602082019050919050565b5f6020820190508181035f830152612417816123de565b9050919050565b7f7369676e6174757265206e6f742066726f6d20636c61696d65642069737375655f8201527f7200000000000000000000000000000000000000000000000000000000000000602082015250565b5f6124786021836121e4565b91506124838261241e565b604082019050919050565b5f6020820190508181035f8301526124a58161246c565b9050919050565b7f697373756572206e6f7420617574686f72697a656400000000000000000000005f82015250565b5f6124e06015836121e4565b91506124eb826124ac565b602082019050919050565b5f6020820190508181035f83015261250d816124d4565b9050919050565b5f819050919050565b61252e61252982611c75565b612514565b82525050565b5f81905092915050565b5f6125498385612534565b93506125568385846122d4565b82840190509392505050565b5f61256d828661251d565b60208201915061257e82848661253e565b9150819050949350505050565b7f7369676e617475726520616c72656164792075736564000000000000000000005f82015250565b5f6125bf6016836121e4565b91506125ca8261258b565b602082019050919050565b5f6020820190508181035f8301526125ec816125b3565b9050919050565b5f6060820190506126065f830186611f55565b6126136020830185611f55565b6126206040830184611f64565b949350505050565b7f7369676e6174757265206e6f742066726f6d20636c61696d656420696e7370655f8201527f63746f7200000000000000000000000000000000000000000000000000000000602082015250565b5f6126826024836121e4565b915061268d82612628565b604082019050919050565b5f6020820190508181035f8301526126af81612676565b9050919050565b7f6e6f7420666f756e6400000000000000000000000000000000000000000000005f82015250565b5f6126ea6009836121e4565b91506126f5826126b6565b602082019050919050565b5f6020820190508181035f830152612717816126de565b9050919050565b7f616c7265616479207265766f6b656400000000000000000000000000000000005f82015250565b5f612752600f836121e4565b915061275d8261271e565b602082019050919050565b5f6020820190508181035f83015261277f81612746565b9050919050565b5f6040820190506127995f830185611f55565b6127a66020830184611f64565b9392505050565b7f696e76616c696420616374696f6e2068617368000000000000000000000000005f82015250565b5f6127e16013836121e4565b91506127ec826127ad565b602082019050919050565b5f6020820190508181035f83015261280e816127d5565b9050919050565b5f61282083856121e4565b935061282d8385846122d4565b612836836122e2565b840190509392505050565b5f6060820190508181035f83015261285a818789612815565b90506128696020830186611f64565b818103604083015261287c8184866122f2565b90509695505050505050565b5f8160601b9050919050565b5f61289e82612888565b9050919050565b5f6128af82612894565b9050919050565b6128c76128c282611cf2565b6128a5565b82525050565b5f819050919050565b6128e76128e282611e12565b6128cd565b82525050565b5f6128f8828a6128b6565b60148201915061290882896128d6565b602082019150612918828861251d565b60208201915061292882876128b6565b60148201915061293882866128d6565b60208201915061294882856128b6565b601482019150612958828461251d565b60208201915081905098975050505050505050565b5f81905092915050565b7f19457468657265756d205369676e6564204d6573736167653a0a3332000000005f82015250565b5f6129ab601c8361296d565b91506129b682612977565b601c82019050919050565b5f6129cb8261299f565b91506129d7828461251d565b60208201915081905092915050565b5f6129f1828a6128b6565b601482019150612a0182896128d6565b602082019150612a11828861251d565b602082019150612a21828761251d565b602082019150612a3182866128b6565b601482019150612a4182856128d6565b602082019150612a51828461251d565b60208201915081905098975050505050505050565b5f604082019050612a795f830185611f55565b612a866020830184611eef565b9392505050565b7f4e487b71000000000000000000000000000000000000000000000000000000005f52602160045260245ffd5b5f602082019050612acd5f830184611f64565b92915050565b5f60ff82169050919050565b612ae881612ad3565b82525050565b5f608082019050612b015f830187611eef565b612b0e6020830186612adf565b612b1b6040830185611eef565b612b286060830184611eef565b9594505050505056fea2646970667358221220d6417e84bfa5d441a1b360b94cbd9e0e8f92df16a91a9956f2f947bdc274830864736f6c634300081c0033",
  "linkReferences": {},
  "deployedLinkReferences": {},
  "immutableReferences": {},
  "inputSourceName": "project/contracts/Compliance.sol",
  "buildInfoId": "solc-0_8_28-54b323c16bd5308b634f10160d7d6471ba3cc04b"
}